{
    "contractName": "PropertyValidator",
    "abi": [
        {
            "inputs": [
                {
                    "internalType": "address",
                    "name": "tokenAddress",
                    "type": "address"
                },
                {
                    "internalType": "uint256",
                    "name": "tokenId",
                    "type": "uint256"
                },
                {
                    "internalType": "bytes",
                    "name": "propertyData",
                    "type": "bytes"
                }
            ],
            "name": "validateProperty",
            "outputs": [],
            "stateMutability": "view",
            "type": "function"
        }
    ],
    "bytecode": "608060405234801561001057600080fd5b50610407806100206000396000f3fe608060405234801561001057600080fd5b506004361061002b5760003560e01c80631395c0f314610030575b600080fd5b61004361003e3660046102b3565b610045565b005b60008080806100568587018761035c565b6040516311edb68160e11b8152600481018c90529397509195509350915088906100d6906001600160a01b038316906323db6d0290602401602060405180830381865afa1580156100ab573d6000803e3d6000fd5b505050506040513d601f19601f820116820180604052508101906100cf91906103a2565b8686610155565b60405163a05b775f60e01b81526004810189905261014a906001600160a01b0383169063a05b775f90602401602060405180830381865afa15801561011f573d6000803e3d6000fd5b505050506040513d601f19601f8201168201806040525081019061014391906103a2565b8484610155565b505050505050505050565b6003816003811115610169576101696103bb565b14156101bf578183146101ba5760405162461bcd60e51b81526020600482015260146024820152731d985b1d595cc8185c99481b9bdd08195c5d585b60621b60448201526064015b60405180910390fd5b505050565b60018160038111156101d3576101d36103bb565b141561023957818311156101ba5760405162461bcd60e51b815260206004820152602760248201527f61637475616c2076616c7565206973206e6f74203c3d20636f6d70617269736f6044820152666e2076616c756560c81b60648201526084016101b1565b600281600381111561024d5761024d6103bb565b14156101ba57818310156101ba5760405162461bcd60e51b815260206004820152602760248201527f61637475616c2076616c7565206973206e6f74203e3d20636f6d70617269736f6044820152666e2076616c756560c81b60648201526084016101b1565b600080600080606085870312156102c957600080fd5b84356001600160a01b03811681146102e057600080fd5b935060208501359250604085013567ffffffffffffffff8082111561030457600080fd5b818701915087601f83011261031857600080fd5b81358181111561032757600080fd5b88602082850101111561033957600080fd5b95989497505060200194505050565b80356004811061035757600080fd5b919050565b6000806000806080858703121561037257600080fd5b8435935061038260208601610348565b92506040850135915061039760608601610348565b905092959194509250565b6000602082840312156103b457600080fd5b5051919050565b634e487b7160e01b600052602160045260246000fdfea2646970667358221220f2cf79382b27d99108fae6b9fd1c68fb99d6f2984fc3c830a668da7445a46d0664736f6c634300080a0033",
    "sourcePath": "/Users/yasmeen/hook/0x-propery-validators/src/PropertyValidator.sol",
    "compiler": {
        "name": "solc",
        "version": "0.8.10+commit.fc410830"
    },
    "functionHashes": {
        "validateProperty(address,uint256,bytes)": "1395c0f3"
    },
    "gasEstimates": {
        "creation": {
            "codeDepositCost": "206200",
            "executionCost": "251",
            "totalCost": "206451"
        },
        "external": {
            "validateProperty(address,uint256,bytes)": "infinite"
        },
        "internal": {
            "compare(uint256,uint256,enum PropertyValidator.Operation)": "infinite"
        }
    }
}