{
  "abi": [
    {
      "inputs": [
        {
          "internalType": "uint256",
          "name": "optionId",
          "type": "uint256"
        }
      ],
      "name": "getExpiration",
      "outputs": [
        {
          "internalType": "uint256",
          "name": "",
          "type": "uint256"
        }
      ],
      "stateMutability": "view",
      "type": "function"
    },
    {
      "inputs": [
        {
          "internalType": "uint256",
          "name": "optionId",
          "type": "uint256"
        }
      ],
      "name": "getStrikePrice",
      "outputs": [
        {
          "internalType": "uint256",
          "name": "",
          "type": "uint256"
        }
      ],
      "stateMutability": "view",
      "type": "function"
    },
    {
      "inputs": [
        {
          "internalType": "uint256",
          "name": "",
          "type": "uint256"
        }
      ],
      "name": "optionParams",
      "outputs": [
        {
          "internalType": "address",
          "name": "writer",
          "type": "address"
        },
        {
          "internalType": "uint32",
          "name": "expiration",
          "type": "uint32"
        },
        {
          "internalType": "uint32",
          "name": "assetId",
          "type": "uint32"
        },
        {
          "internalType": "address",
          "name": "vaultAddress",
          "type": "address"
        },
        {
          "internalType": "uint128",
          "name": "strike",
          "type": "uint128"
        },
        {
          "internalType": "uint128",
          "name": "bid",
          "type": "uint128"
        },
        {
          "internalType": "address",
          "name": "highBidder",
          "type": "address"
        },
        {
          "internalType": "bool",
          "name": "settled",
          "type": "bool"
        }
      ],
      "stateMutability": "view",
      "type": "function"
    }
  ],
  "bytecode": {
    "object": "0x608060405234801561001057600080fd5b506101a7806100206000396000f3fe608060405234801561001057600080fd5b50600436106100415760003560e01c806323db6d0214610046578063a05b775f1461006d578063cd52d15114610081575b600080fd5b61005a610054366004610158565b50606490565b6040519081526020015b60405180910390f35b61005a61007b366004610158565b5060c890565b6100f961008f366004610158565b60006020819052908152604090208054600182015460028301546003909301546001600160a01b0380841694600160a01b80860463ffffffff90811696600160c01b900416948316936001600160801b0380841694600160801b9094041692811691900460ff1688565b604080516001600160a01b03998a16815263ffffffff9889166020820152969097169686019690965292861660608501526001600160801b0391821660808501521660a083015290921660c0830152151560e082015261010001610064565b60006020828403121561016a57600080fd5b503591905056fea2646970667358221220be59eb12a5998fd454490932dfc78fcaccb30241461e65afc4766aeaa1254c8764736f6c634300080f0033",
    "linkReferences": {}
  },
  "methodIdentifiers": {
    "getExpiration(uint256)": "a05b775f",
    "getStrikePrice(uint256)": "23db6d02",
    "optionParams(uint256)": "cd52d151"
  },
  "id": 0
}